:020000040800F2
:100000008007002061010008911D00081B1C0008EA
:1000100000000000000000000000000000000000E0
:10002000000000000000000000000000951D000816
:100030000000000000000000931D0008971D00084C
:1000400073010008730100087301000873010008C0
:1000500073010008730100087301000873010008B0
:1000600073010008730100087301000873010008A0
:10007000A10400087301000873010008111E0008A4
:1000800073010008730100080000000073010008FC
:100090007301000873010008730100087301000870
:1000A000730100087301000873010008612600084D
:1000B00073010008000000007301000800F002F85E
:1000C00000F03EF80CA030C8083824182D18A246BD
:1000D000671EAB4654465D46AC4201D100F030F895
:1000E0007E460F3E0FCCB6460126334200D0FB1AA7
:1000F000A246AB4633431847B8260000D826000076
:10010000103A02D378C878C1FAD8520701D330C860
:1001100030C101D504680C60704700000023002442
:1001200000250026103A01D378C1FBD8520700D32E
:1001300030C100D50B6070471FB51FBD10B510BD95
:1001400000F07BF91146FFF7F7FF02F0CBFA00F061
:1001500093F903B4FFF7F2FF03BC00F099F9000034
:100160000748804707480047FEE7FEE7FEE7FEE74F
:10017000FEE7FEE704480549054A064B70470000C4
:100180000D1E0008BD00000880010020800700202F
:100190008003002080030020FEB5054610460C4673
:1001A000184373D0AE468C460020AD1A01469C41E0
:1001B00067D36646002701243D46B61A9D4102D307
:1001C00013463A462124654676462F04360C3E43B4
:1001D0002D0CB61A9D4104D3150C1B042B4312049D
:1001E0001034654676462F06360A3E432D0AB61A67
:1001F0009D4104D3150E1B022B43120208346546A1
:1002000076462F0736093E432D09B61A9D4104D381
:10021000150F1B012B431201241D65467646AF07BF
:10022000B6083E43AD08B61A9D4104D3950F9B0016
:100230002B439200A41C65467646EF0776083E43A2
:100240006D08B61A9D411AD392185B41641C16E0E2
:100250000018764665464941B71A9D4101910090C4
:1002600009D36046B11A98418E4684460098019998
:100270000025401C6941DD0752082A435B08641EC3
:10028000E6D57246634603B0F0BDFFE700200146A5
:10029000C046C0462A462346F5E701E004C0091FD0
:1002A0000429FBD28B0701D50280801CC90700D02E
:1002B0000270704700290BD0C30702D00270401CA7
:1002C000491E022904D3830702D50280801C891E9F
:1002D000E3E70022EEE70022DFE7002203098B427A
:1002E0002CD3030A8B4211D300239C464EE00346D5
:1002F0000B433CD4002243088B4231D303098B4289
:100300001CD3030A8B4201D394463FE0C3098B42BE
:1003100001D3CB01C01A524183098B4201D38B0117
:10032000C01A524143098B4201D34B01C01A5241BA
:1003300003098B4201D30B01C01A5241C3088B42FF
:1003400001D3CB00C01A524183088B4201D38B00EA
:10035000C01A524143088B4201D34B00C01A52418C
:10036000411A00D201465241104670475DE0CA0F63
:1003700000D04942031000D34042534000229C4623
:1003800003098B422DD3030A8B4212D3FC2289012D
:1003900012BA030A8B420CD3890192118B4208D303
:1003A000890192118B4204D389013AD0921100E065
:1003B0008909C3098B4201D3CB01C01A5241830979
:1003C0008B4201D38B01C01A524143098B4201D3A6
:1003D0004B01C01A524103098B4201D30B01C01AD1
:1003E0005241C3088B4201D3CB00C01A524183084B
:1003F0008B4201D38B00C01A5241D9D243088B42A1
:1004000001D34B00C01A5241411A00D20146634643
:1004100052415B10104601D34042002B00D54942A7
:10042000704763465B1000D3404201B50020C046D0
:10043000C04602BD704770477047754600F024F80B
:10044000AE46050069465346C008C000854618B050
:1004500020B5FFF78FFE60BC00274908B64600268E
:10046000C0C5C0C5C0C5C0C5C0C5C0C5C0C5C0C564
:10047000403D49008D46704710B50446C046C04611
:100480002046FFF766FE10BD00487047200100209F
:1004900001491820ABBEFEE72600020070470000AD
:1004A00010B5024800F0E7F810BD0000140000206D
:1004B000F8B5044600200090206881688907890FFC
:1004C000012905D10168C90731D1C16809042ED4B9
:1004D0008168184A10261140012500291AD1816827
:1004E00029438160154814490068FFF7F6FE00E0D3
:1004F000401E00900028FBD100F0D8FB074611E019
:1005000000F0D4FBC01B02280CD920680068C0434F
:10051000C00707D0A06B3043A063E06B2843E063C3
:100520000120F8BD20680068C043C007E8D1002062
:10053000F8BD00001700008040420F0010000020AE
:10054000F8B50025044620340095227D012A3BD0D1
:100550000122227503689E68760776D43F4F4E6865
:10056000BE4254D09E6A0F78BA4016439E62012361
:10057000C26A1B079A421FD0012A1DD0022A1BD033
:10058000032A19D0042A17D0052A15D0062A13D019
:10059000072A11D002688B6856697607760FB34236
:1005A0000AD05369DB08DB005361006842690B7AAB
:1005B0005B075B0F1A4342610868102806D01128B8
:1005C00004D0122802D045E00220F8BD244A9368E6
:1005D000102809D011280AD0012000060343936097
:1005E0000868102806D035E00120C005F6E7012094
:1005F0008005F3E71C481B490068FFF76EFE0A21DF
:10060000484300E0401E00900028FBD122E0986A99
:100610000E78B240904398620868102803D01128E1
:1006200001D0122816D10E498A68102807D0112847
:1006300008D00120000682438A600BE005E001201B
:10064000C005F8E701208005F5E7816B2022114302
:1006500081630125002020752846F8BD01100000A7
:100660000027014040420F001000002070477047F3
:100670000068006C704770B504460068016849075F
:1006800002D54168490705D40168090730D541689A
:1006900009072DD5A16BC90604D4A16B0122520212
:1006A0001143A163C1680C250905890F00291AD1DE
:1006B000A17E002917D10168090714D581684A076E
:1006C0000121002A08DB4268AA434260A06B0A02AB
:1006D00090430843A06306E0A06B20221043A06370
:1006E000E06B0843E0632046FFF7C0FF2068056029
:1006F0002068016809060DD5406800060AD5A06B80
:10070000012109040843A063204600F0D9F82168BC
:100710008020086020680168C90613D54168C906B1
:1007200010D5A16A1025012902D0C168C90707D0D8
:10073000E16B02221143E16305602046FFF797FF5A
:100740002068056070BD0000F8B50026044600284A
:1007500005D0A06B25462035002802D007E00120F7
:10076000F8BD0020E0632875204600F0ABF8A06BD0
:100770001022C006002870DB2068816849076CD40D
:10078000A16B1301994302231943A163816889076F
:10079000890F012905D10168C9070FD1C168090472
:1007A0000CD4C16818239943A3681943C160206819
:1007B0000169636889008908194301612068C1687B
:1007C0003D4B1940C160207E617E8003C903084310
:1007D000A17E4B031843A36A012B02D001231B0304
:1007E00000E000231843E36818432369022B09D073
:1007F000002318432B79E57E5B0018430123012D6C
:1008000002D00AE00423F4E7002927D0A16B2025B9
:100810002943A163E16B1943E163E1690D46FF3DA3
:10082000C23D02D0256A294308432168CD680543AB
:10083000CD600125E16A2D07A94213D0012911D00D
:1008400002290FD003290DD004290BD0052909D086
:10085000062907D0072905D010E028E00121090466
:100860000843DAE721684D69ED08ED004D61216824
:100870004D69A78D7F077F0F3D434D612168C96892
:100880000E4D2940814207D10020E063A06B800813
:100890008000401CA06308E0A06B02218843104345
:1008A000A063E06B1843E06301263046F8BDA06BFF
:1008B0001043A063F8E700001902FEFFE7FF3F8343
:1008C0007047000010B586B0044614216846FFF753
:1008D00002FD13492068884220D1124882694115DF
:1008E0000A43826182690A400592426949020A43C9
:1008F0004261406908400590022000900320019069
:10090000002002906946084800F0F8F800221146DD
:100910000C2000F02BFA0C2000F01CFA06B010BDE1
:10092000002401400010024000040048F8B50446CD
:100930004069254620350E4608280BD02068C0683F
:10094000C00709D0A06B20210843A06300202875B0
:100950000120F8BD082700E00C2700F0A7F900905F
:1009600015E0701C13D0002E05D000F09FF90099FF
:10097000401AB0420BD920680068384207D1A06BFA
:1009800004210843A063002028750320F8BD2068D7
:1009900000683842E5D0A06B012149020843A063FA
:1009A0002068C16809058A0F0C21002A1AD1A27E8D
:1009B000002A17D10268120714D582685307012252
:1009C000002B08DB43688B434360A06B1302984302
:1009D0001043A06306E0A06B20231843A063E06BE4
:1009E0001043E063207E002801D1206801600020D0
:1009F000F8BD000070B504462168002089684907E9
:100A000021D425462035297D01291CD001212975B5
:100A1000617E012904D02046FFF74AFD002811D14C
:100A2000A16B0A4A1140FF2201321143A163002148
:100A3000E163297522681C21116021688A680423FA
:100A40001A438A6070BD022070BD0000FEF1FFFFF6
:100A500030B5014620314B780022022B04D004230C
:100A600083630A70012030BD03681C680E25AC4307
:100A70001C6003681C68640864001C600123056C2A
:100A80001C46C06BAC4044604B700A70002030BD07
:100A900070B50024014620314A78022A03D004218F
:100AA0008163012416E0026813680E25AB431360CE
:100AB000026813685B085B0013600122056C134633
:100AC000AB40C56B6B604A7000220A70416B002915
:100AD00000D08847204670BD70B5044600F0E6F8A7
:100AE0000546601C02D004480078241800F0DEF8A7
:100AF000401BA042FAD370BD04000020F8B50023CB
:100B000003240125BAE02E469E40B44632407CD0F4
:100B10000E79B607B60F012E01D0022E17D18668C6
:100B20002746B6465E00B74000967646BE43B646B8
:100B3000CF68009EB7407646374387604668674671
:100B4000BE430F79FF06FF0F9F40374347600E7982
:100B5000F643B6070ED0C6682746B4465E00B646D2
:100B6000B7406646BE43B4468F687646B740664691
:100B70003743C7600E79B607B60F022E14D1DE08D0
:100B8000B60036180096366A5F07B446FE0E0F2789
:100B9000B646B7406646BE43B4460F697646B74090
:100BA00066463743009E376206682746B4465E00B5
:100BB000B646B7406646BE430F79B446BF07BF0F7F
:100BC0007646B7406646374307604E68B603B60FB1
:100BD00053D02D4FBE692E43BE61BE699F08F607F4
:100BE000F60F2A4EBF00BE190096B6680F27B4460E
:100BF0009E07360FB646B7406646BE430927FF0636
:100C0000B446B84202D1002710E036E0204FB84287
:100C100001D101270AE01F4FB84201D1022705E0A8
:100C20001D4FB84201D1032700E005277646B740A3
:100C300066463743009EB760184E36684F68964345
:100C4000FF0300D51643154F3E607E684F689643FC
:100C5000BF0300D51643114F7E60BE684F689643B0
:100C6000FF0200D516430D4FBE60FE684F689643E5
:100C7000BF0200D51643094AD6605B1C0A681646B7
:100C8000DE4000D03FE7F8BD001002400000014008
:100C90000004004800080048000C0048000401401F
:100CA000002A01D0816170478162704701488068E5
:100CB000704700000400002002488168027889180B
:100CC000816070470400002010B5064801681022BA
:100CD00011430160032000F007F800F027F800201E
:100CE00010BD00000020024070B504460D4D7D206F
:100CF0002978C000FFF7F1FA01460B480068FFF7BA
:100D0000ECFA00F04BFB002809D1042C07D200229A
:100D10002146401E00F02AF800206C6070BD0120C2
:100D200070BD0000040000201000002008B5084835
:100D30008169012211438161816911400091C26979
:100D400001040A43C261C0690840009008BD000068
:100D500000100240002805DBC106C90E01208840B2
:100D6000014908607047000000E100E010B501F0A3
:100D700097FC10BDF8B505460068394CC00352D544
:100D8000E0690026C00007D4E16920040143E16165
:100D9000E16901400126009132480168C90510D47B
:100DA0000168821511430160FFF780FF074604E0E8
:100DB000FFF77CFFC01B642824D82A480068C005C0
:100DC000F6D5206A03273F02384020D069683940B1
:100DD00081421CD0206A226AB843012109040A43D7
:100DE0002262226A8A4322622062C0070FD0FFF784
:100DF0005DFF009008E0FFF759FF0099411A1A487B
:100E0000814201D90320F8BD206A8007F3D5206A0A
:100E10006968B84308432062002E04D0E1690120CC
:100E200000078143E1612878C00705D0206BA968DD
:100E300080088000084320632878800605D5206B51
:100E400010218843E968084320632888400505D5B8
:100E5000206B402188432969084320630020F8BDA6
:100E6000001002400070004088130000F8B50F46E3
:100E7000060059D03A4D2868C007C00FB84209D2C1
:100E8000286840084000384328602868C007C00F21
:100E9000B84249D13068334C81070CD5400704D59E
:100EA000606807210902084360606068F021884398
:100EB000B168084360603078C00726D070680128A8
:100EC0000ED0216802280ED0890700292CDA61682B
:100ED0008908890001436160FFF7E8FE00900DE09A
:100EE00021688903F1E78901EFE7FFF7DFFE009949
:100EF000411A1D48814201D90320F8BD60680C21C8
:100F00000840716889008842EFD12868C007C00F87
:100F1000B8420BD928684008400038432860286848
:100F2000C007C00FB84201D00120F8BD307840079B
:100F300006D56068072109028843F16808436060AC
:100F400000F028F86168094A0906090F515CC84099
:100F5000074908600320FFF7C7FE0020F8BD000026
:100F6000002002400010024088130000982700086B
:100F7000100000200448054900684968044A4905F2
:100F8000490F515CC840704710000020001002401B
:100F9000A827000810B514A30FCB88B06C460FC467
:100FA00015A30FCB0FC4184A51680C200B46034001
:100FB0001648042B16D0082B14D18B021B0F6C463D
:100FC000E45CD26A04AB1207120F9A5CC90305D520
:100FD00000231946FFF7E0F8214601E020460C49BE
:100FE00001F046FB08B010BD02030405060708091E
:100FF0000A0B0C0D0E0F1010010203040506070862
:10100000090A0B0C0D0E0F100010024000127A009E
:1010100000093D00FEB5040070D02078DC4DC0070B
:101020004AD068680007800F012807D06868000769
:10103000800F022809D16868C00306D5286880039C
:101040003AD560680028E7D036E06168012914D0FD
:1010500001208004002901D0052914D02A6801212B
:1010600009048A432A60296881432960606800284E
:1010700016D0FFF71BFE06460EE028680121090482
:1010800008432860F2E7296801432960F5E7FFF784
:101090000DFE801B64286ED828688003F7D50BE00E
:1010A000FFF704FE064604E0FFF700FE801B6428FD
:1010B000F1D828688003F7D420780126800700281B
:1010C0003CDA68680007800F07D068680007800F67
:1010D000022809D16868C00306D42868800716D59D
:1010E000E06801280AD112E0E0680028286816D0DC
:1010F00030432860FFF7DAFD074605E043E1FFF7DC
:10110000D5FDC01B0228C6D828688007F7D52868F7
:10111000F82188432169C900084328600EE040088F
:1011200040002860FFF7C2FD074604E0FFF7BEFD60
:10113000C01B0228AFD828688007F7D420780007A2
:1011400022D5E0690028686A0ED030436862FFF754
:10115000ADFD074604E0FFF7A9FDC01B02289AD8A1
:10116000686A8007F7D50FE0400840006862FFF723
:101170009DFD074605E09DE0FFF798FDC01B022896
:1011800089D8686A8007F7D42078042740070028A8
:1011900060DA00200190E869C00008D4E969B80667
:1011A0000143E961E969014001200091019079481A
:1011B0000168C90511D40168821511430160FFF768
:1011C00075FD009005E0FFF771FD0099401A642855
:1011D00070D870480068C005F5D5A06801280AD00D
:1011E000002801D0052810D0286A40084000286255
:1011F000286AB84301E0286A30432862A0680028C2
:1012000012D0FFF753FD00900AE0286A38432862A5
:10121000F1E7FFF74BFD0099411A5F48814249D839
:10122000286A8007F5D50DE0FFF740FD009006E045
:10123000FFF73CFD0099411A574881423AD8286A85
:101240008007F5D40198002804D0E969012000073F
:101250008143E9612078C00635D5606901280CD04A
:10126000401D686B23D038436863686B40084000BA
:101270006863FFF71BFD064622E0686B384368632E
:10128000686B30436863FFF711FD064604E0FFF723
:101290000DFD801B02285BD8686B8007F7D5686B53
:1012A000F8218843A169C900084368630BE0B8438B
:1012B0006863F4E74CE0FFF7F9FC801B022847D88D
:1012C000686B8007F7D4206A00285ED06968090738
:1012D000890F022942D0012636060228286805D047
:1012E000B0432860FFF7E2FC044633E0B0432860D7
:1012F000FFF7DCFC074604E0FFF7D8FCC01B022820
:1013000026D828688001F7D4E86AE16A000900015C
:101310000843E862616AA06A084369683D221204D2
:10132000914308436860286830432860FFF7BEFC9B
:10133000044604E0FFF7BAFC001B022808D828681E
:101340008001F7D521E0FFF7B1FC001B022801D98D
:101350000320FEBD28688001F5D416E00128F8D0EE
:101360006868E96A01221204636A02409A420AD15B
:101370000907E26A090F914205D10F21890408404B
:10138000A16A884201D00120FEBD0020FEBD000000
:10139000001002400070004088130000094910B599
:1013A000401E884201D9012010BD074C6061032115
:1013B000081F01F075F90020A061072020610020BE
:1013C00010BD0000FFFFFF0000E000E07047704725
:1013D000F0B502462032137F012B21D0012515776D
:1013E0000223537706687468B3687027BC430F689C
:1013F0002743776000680B4CA04208D0AC07A0429E
:1014000005D0094CA04202D0084CA04204D180244F
:101410004968A34319438160557700201077F0BDD8
:101420000220F0BD002C01400004004000400140BB
:10143000704770B50446006801690025C9438907F3
:10144000002915DBC168C943890711D4E91E016170
:1014500001202077206880698007204602D0FFF7AE
:10146000E7FF04E000F0BCF8204600F061F92577C2
:1014700020680169C943490717D4C168C9434907AE
:1014800013D40421C94301610220207720688069B8
:101490008005800F204602D0FFF7CAFF04E000F06D
:1014A0009FF8204600F044F9257720680169C94378
:1014B000090716D4C168C943090712D40821C943D2
:1014C0000161042020772068C0698007204602D08F
:1014D000FFF7AEFF04E000F083F8204600F028F9A3
:1014E000257720680169C943C90617D4C168C94373
:1014F000C90613D41021C943016108202077206850
:10150000C0698005800F204602D0FFF791FF04E0FC
:1015100000F066F8204600F00BF925772068016995
:10152000C943C90708D1C168C943C90704D1891E85
:101530000161204600F056F920680169C943090697
:1015400009D4C168C943090605D48021C943016192
:101550002046FFF73BFF20680169C943490609D4CB
:10156000C168C943490605D44021C94301612046E9
:1015700000F039F920680169C943890609D4C168B6
:10158000C943890605D42021C94301612046FFF7DC
:101590001EFF70BD10B586B0044614216846FEF7E4
:1015A0009AFE012120688907884214D10B484269BC
:1015B00049130A43426140690840059001200090A8
:1015C00000200221029003900191049109206946B4
:1015D000C006FFF793FA06B010BD000000100240ED
:1015E0007047F8B5064604462036307F00270D4682
:1015F00001280ED001203077002A0CD0042A1BD0FD
:10160000082A2FD00C2A3ED00127002030773846F8
:10161000F8BD0220F8BD206800F05AFC20688169FE
:101620000822114381612068826904218A43826112
:10163000206881692A6912E0206800F08DFC20682A
:1016400082690121C9020A438261206881690122FD
:10165000920291438161206881692A6912021143D3
:101660008161D2E7206800F0B7FC2068C1690822D8
:101670001143C1612068C26904218A43C2612068A4
:10168000C1692A6912E0206800F0E8FC2068C1699D
:101690000122D2021143C1612068C269012189027D
:1016A0008A43C2612068C1692A6912021143C1617B
:1016B000ABE770B5040005D025462035687F0028CB
:1016C00002D006E0012070BD00202877204600F0FF
:1016D00015F802206877211D206800F0A1FB012089
:1016E0004034A071A877E87720706070A070E07037
:1016F000207160716877002070BD000008B5006837
:101700000121890788420FD10848C169012211438C
:10171000C161C06910400022009011460F20FFF700
:1017200025FB0F20FFF716FB08BD0000001002404C
:101730007047000030B504460223203000290AD04B
:1017400004290DD02046403008290ED04278012AC5
:1017500010D0012030BD827F012AFAD183770AE0C0
:10176000C27F012AF5D1C37705E00278012AF0D1C2
:10177000037000E043700122206800F09BFB144AD4
:1017800020681449904207D0884205D0124B9842F5
:1017900002D0124B984204D1436C0125ED032B4338
:1017A000436420680123904207D09A07904204D0F6
:1017B0000B4A904201D0884204D181684907490F01
:1017C000062902D0016819430160002030BD0000E5
:1017D000002C01400040014000440140004801400D
:1017E0000004004070477047704770477047000022
:1017F000F8B502680446D06911689668A24B0340A8
:101800001D462023002D75D0F707A04DFF0FBC46C5
:101810000D402F436DD02546C7078035002F06D0D9
:10182000CF0504D5012717622A683A432A60820748
:1018300008D5F20706D0276802223A622A680427F0
:101840003A432A60420708D5F20706D026680422E8
:1018500032622A68022632432A6002070AD50A4603
:101860001A406646324305D02668082232622E6846
:1018700016432E60020508D54A0106D501222668C6
:10188000D20232622A681A432A602A68002A39D0B2
:10189000800606D5880604D5616E002901D0204651
:1018A0008847286821688968490602D428210842A7
:1018B0002DD0204600F0AAFC21688868400622D579
:1018C000EFF31080012282F310888B68402293434B
:1018D0008B6080F31088206F002814D06C4941631E
:1018E000206FFFF7D5F800280CD0206F416B08E07F
:1018F00000E012E0850610D58D060ED5616EA8E0D9
:1019000020468847F8BD2046FFF770FFF8BD204607
:10191000FFF76CFF00202860F8BD256E012D7DD1FA
:10192000C5067BD5CD0679D510261662226890684B
:10193000254640064035002845DA216F0868406892
:101940000004000CE8D02F8B8742E5D968838869B2
:10195000202833D0EFF31080012181F31088116823
:101960003701B943116080F31088EFF31080012133
:1019700081F3108821688A68520852008A6080F3D7
:101980001088EFF31080012181F3108821688A68A4
:101990004027BA438A6080F31088E36700202066FE
:1019A000EFF31080012181F3108821680A68B243A7
:1019B0000A6080F31088206FFFF74AF8288B698B44
:1019C000401A81B231E0288B698B401A81B2688B52
:1019D0000028A1D000299FD0EFF31080012585F3C6
:1019E00010881568FF272137BD43156080F31088E4
:1019F000EFF31080012282F31088226895686D0849
:101A00006D00956080F31088E367002020666066B3
:101A1000EFF31080012282F3108800E009E02268D1
:101A20001368B343136080F310882046FFF7DCFE91
:101A3000F8BDC50208D5750206D501200005106263
:101A40002046FFF7D2FEF8BD050606D50D0604D5E3
:101A5000A16E002900D053E7F8BD4006FCD548062A
:101A6000FAD52046EFF31081012484F3108815681D
:101A70004024A543156081F31088836700218166A7
:101A800000F0CAF8F8BD00000F08000020010004B3
:101A9000F921000810B5040003D0A06F002802D07F
:101AA00007E0012010BD002174200155204600F000
:101AB00027F82420A06720680168490849000160D0
:101AC000204600F07BFC0128ECD0606A002802D0A0
:101AD000204600F0F9FA206841680922D2029143B9
:101AE0004160206881682A229143816020680168F2
:101AF000012211430160204600F04CFB10BD0000A4
:101B000010B586B0044614216846FEF7E4FB174979
:101B10002068884227D116488269012189030A4337
:101B2000826182690A4005924269C9000A434261A2
:101B30004069084005900320400200900220019077
:101B400000200290032003900120049009206946A0
:101B5000C006FEF7D3FF002211461B20FFF706F94F
:101B60001B20FFF7F7F806B010BD00000038014059
:101B70000010024070B5C36F202B2BD100290BD071
:101B8000002A09D0012483682403A34206D10369F3
:101B9000002B03D1CB0701D0012070BD0346603379
:101BA0001C7D012C16D001241C75002303660468DB
:101BB00063681B020BD5EFF31083012585F31088B2
:101BC00025680126B6063543256083F3108800F0AA
:101BD0008FFC70BD022070BD10B500680B498842B3
:101BE00013D10B4801780920C0064E2902D059298B
:101BF00002D005E0002200E001220221FFF750F8A8
:101C0000012203490348FFF7B5FF10BD003801402A
:101C1000000000209C0000207047FEE70EB5002168
:101C20001848009101910291154A4160026081605B
:101C3000012204230C300EC0017041708270FF231A
:101C4000C170C23343600346816008331971026179
:101C50001838FEF779FD002801D072B6FEE709209A
:101C6000009001200003019000040290694605489D
:101C7000FEF766FC002801D072B6FEE70EBD00003C
:101C8000002401401400002010B586B014216846DD
:101C9000FEF721FB11484269012149040A434261D0
:101CA00042690A400592426949000A43426140691B
:101CB00009240840E406059000220A212046FEF788
:101CC000EFFF0A2000900021012002910391019072
:101CD00069462046FEF712FF06B010BD0010024014
:101CE00010B58AB0002407941C2168460894FEF7BA
:101CF000F2FA0121174889070160A0218460416040
:101D00007D210461C9008461C160FFF7D2FC002815
:101D100001D072B6FEE7079407A90E480894FFF7B2
:101D200057FB002801D072B6FEE760200090FF202C
:101D3000F530019002940022694604940548FFF7AB
:101D400050FC002801D072B6FEE70248FFF722FCE3
:101D50000AB010BD5400002010B50C480A490160BB
:101D60004B21C901416000218160C1600161816135
:101D7000C1610C22016242614162FFF78BFE0028C3
:101D800001D072B6FEE710BD003801409C00002073
:101D9000FEE77047704710B5FEF78EFF10BD30B5F7
:101DA00095B030216846FEF796FA00240C940D9405
:101DB0000E94142110A80F94FEF78DFA012512201D
:101DC00005950090102003950490069008946846AD
:101DD000FFF720F9002801D072B6FEE707200C902B
:101DE0000D940E9400210F940CA8FFF73FF80028E3
:101DF00001D072B6FEE710A810951294FEF7BAFF54
:101E0000002801D072B6FEE715B030BD7047000063
:101E100010B50248FFF70DFB10BD00005400002074
:101E2000F0B502681D4B0124A4071D4D984203D054
:101E3000A04201D0A84203D17026B2434E6832437B
:101E4000184E194F98420DD0A0420BD0A84209D08D
:101E5000164CA04206D0B04204D0B84202D0144C76
:101E6000A04204D103242402A243CC68224380244C
:101E7000A2434C69224302608A68C2620A68826295
:101E8000984206D0B04204D0B84202D0084A9042EC
:101E900001D10969016301214161F0BD002C0140BC
:101EA0000004004000400140004401400020004088
:101EB0000048014010B5CB06DB0E0121046A9940B1
:101EC0008C430462016A9A401143016210BD000014
:101ED000F0B5026A520852000262056A43688269DC
:101EE0007024A24392080C68920014430222954386
:101EF0008A68164E2A43144DA84207D0B04205D036
:101F0000134FB84202D0134FB84206D10827BA4344
:101F1000CF681743042297433A46A84207D0B042FD
:101F200005D00B4DA84202D00A4DA84206D1032588
:101F30002D02AB434D691D438B692B434360846184
:101F4000496841630262F0BD002C0140004001403D
:101F5000004401400048014070B5026A10239A43D2
:101F60000262056A4268836973242402A3430C68F1
:101F700024021C4320239D438B681B012B43124DDD
:101F8000A84208D11D46CB688026B5431B012B43D0
:101F90004025AB4308E00D4DA84205D00C4DA842AA
:101FA00002D00C4DA84208D10325AD02AA434D69C9
:101FB000AD0015438A6992002A43426084614968F2
:101FC0008163036270BD0000002C014000400140AD
:101FD000004401400048014070B5026AFF2301330C
:101FE0009A430262056A4368C2697024A243920858
:101FF0000C68920014430122520295438A6812022F
:102000002A43124DA84208D11546CA68C614B543E2
:1020100012022A430515AA4308E00D4DA84205D037
:102020000C4DA84202D00C4DA84208D103252D0327
:10203000AB434D692D011D438B691B012B4343604D
:10204000C4614968C163026270BD0000002C014098
:1020500000400140004401400048014030B5026AA0
:1020600001231B039A430262046A4268C369732511
:102070002D02AB430D682D021D4301235B039C43DE
:102080008B681B0323430C4CA04208D00B4CA0428E
:1020900005D00B4CA04202D00A4CA04205D101242D
:1020A000A403A2434C69A40122434260C56149686C
:1020B0000164036230BD0000002C0140004001407B
:1020C000004401400048014010B5818CC90707D089
:1020D00001684A6801235B049A43836A1A434A6091
:1020E000818C890707D501684A6801231B049A433C
:1020F000C36A1A434A60818C490707D501684A6858
:1021000001239B049A43036B1A434A60818C09079D
:1021100007D501684A680123DB039A43436B1A43DE
:102120004A60818CC90607D50268916801231B03A8
:102130009943836B19439160818C890607D50168A7
:102140008A6801235B039A43C36B1A438A60818CBC
:10215000490612D503685A6801210905046C8A43AF
:1021600022435A60026C8A4207D1026851680323F5
:102170005B059943436C19435160818C090607D56F
:1021800001684A680123DB04806C9A4302434A6079
:1021900010BD0000F8B50446002680300660FEF74A
:1021A00085FD054620680068124F000709D501210A
:1021B0002B46002249052046009700F0E7F9002849
:1021C0000DD12068006840070BD501212B46002265
:1021D00089052046009700F0D9F9002801D0032096
:1021E000F8BD2020A067E0672666603426750020D1
:1021F000F8BD0000FFFFFF0110B5406A0022014654
:1022000040314A834A82FFF7F1FA10BD10B5EFF36F
:102210001081012282F3108802681368FF242134A0
:10222000A343136081F31088EFF31081012282F33E
:102230001088026893685B085B00936081F31088E4
:10224000016E01290BD1EFF31081012282F3108876
:10225000026813681024A343136081F310882021BF
:10226000C16700210166416610BD70B5014640316D
:102270008B8BC46F0268222C04D09069082108431C
:10228000906170BD928C446D1A402280426D921C08
:1022900042654A8B521E4A834A8B002AF1D1EFF3E2
:1022A0001082012383F3108803681C68FF25213501
:1022B000AC431C6082F31088EFF31082012383F398
:1022C000108803689C68640864009C6082F310882E
:1022D0002022C26700224266036E012B02D0FFF764
:1022E0007BFC70BD0266EFF31082012383F310883C
:1022F0000468256810239D43256082F310880268D6
:10230000D469E443E40600D41362098BFFF76CFA46
:1023100070BD70B5014640318B8BC46F0268222CB2
:1023200004D0906908210843906170BD928C1A40D6
:10233000436D1A70426D521C42654A8B521E4A838D
:102340004A8B002AF1D1EFF31082012383F3108826
:1023500003681C68FF252135AC431C6082F310889C
:10236000EFF31082012383F3108803689C686408EC
:1023700064009C6082F310882022C26700224266BB
:10238000036E012B02D0FFF727FC70BD0266EFF34E
:102390001082012383F310880468256810239D436D
:1023A000256082F310880268D469E443E40600D40F
:1023B0001362098BFFF718FA70BD000070B5044670
:1023C00080682169E2690843616900251143226838
:1023D00008431168404B1940014311602168486867
:1023E000032212039043E26810434860A169206A07
:1023F000084321688A680B231B029A4302438A60C0
:1024000036492068884210D13548006B8007800F1C
:102410000ED0012805D0022805D003280AD10221B8
:1024200009E0042107E0082105E02E49884201D196
:10243000002100E010210120E369C0032A4A2B4E4D
:10244000834223D1002906D0022907D0042907D0CE
:10245000082937D108E0FEF78DFD03E0104603E0C0
:10246000FEF798FD002831D0616840004A088018C6
:10247000FDF733FF80B201461039B14222D81B4923
:10248000491C01400007400F08431DE0002906D009
:10249000022907D0042907D0082913D108E0FEF744
:1024A00069FD03E0104603E0FEF774FD00280DD03F
:1024B00061684A081018FDF710FF80B20146103914
:1024C000B14201D9012501E02168C86000206066A1
:1024D000A066284670BD0000F369FFFF0038014088
:1024E000001002400044004000127A00EFFF00009C
:1024F00070B54165014640310A834A830022426635
:10250000012385681B03FF249D4204D10569002D2A
:1025100031D11B4C2FE0002D29D08A8380210A5015
:102520002221C167EFF31081012484F3108804682D
:10253000A56801263543A56081F31088816899421A
:1025400002D10169002918D00E49416674210A544C
:10255000EFF31081012282F3108800680268FF23E4
:1025600021331A43026081F31088002070BD056991
:10257000002D00D07F248C83D0E70349E5E70000DD
:10258000FF010000132300086B220008FFB581B093
:1025900005461746044660350A9E55E0701C53D028
:1025A000FEF784FB0499401AB04230D8002E2ED09A
:1025B00020680168490747D5C069C043000543D476
:1025C00001202168C0020862EFF31080012181F32D
:1025D000108821680B68FF22A13293430B6080F3BF
:1025E0001088EFF31080012181F3108821688A6838
:1025F000520852008A6080F310882020A067E067AC
:102600008034206000202875032005B0F0BDEFF372
:102610001080012181F3108821680B68FF22A1320C
:1026200093430B6080F31088EFF31080012181F356
:10263000108821688A68520852008A6080F31088E6
:102640002020A067E067DDE72068C1690298884321
:1026500004D00020B842A1D00020D6E70120F9E73D
:1026600010B50248FFF7C4F810BD00009C00002020
:10267000F8B5040C8BB2264682B25E430D0C1046B0
:10268000370C5843360480190021794116466E43B1
:10269000370C36048019794126466E438919F8BDF6
:1026A0008307FF22DB0E9A408907090E9940002814
:1026B00008DB830809489B001B18186890430843EF
:1026C000186070470007000F0838830804489B0013
:1026D0001B18D86990430843D861704700E400E0B4
:1026E00000ED00E0FEF7F0FAFFF759FBFFF7CCFA38
:1026F000FFF7F6FAFFF792FAFFF72EFB00211A48D0
:10270000FFF718F818484038FEF774F97D2416488A
:10271000E40021464038FEF709F913480122134925
:102720004830FFF727FA114D0926F6060E484038C3
:10273000FDF79EFF82B26A80462AF7DD00F022F89C
:102740002046FEF7C9F900F013F8012208213046AF
:10275000FEF7A6FA2046FEF7BFF900220821304610
:10276000FEF79EFAE2E7000054000020000000207F
:1027700010B5FF209130FEF7AFF9782001218907CD
:10278000486310BD10B5FF209130FEF7A5F93C203D
:1027900001218907486310BD00000000000000000F
:1027A00001020304060708090000000001020304F7
:1027B000D0270008000000201400000000010008DD
:1027C000E4270008140000206C0700001C0100082A
:1027D00000000000010000000400000000000000F4
:0427E00000127A0069
:04000005080000BD32
:00000001FF
